S00F0000506F6C6C696E672E7372656340
S11300000C9434000C9451000C9451000C94510045
S11300100C9451000C9451000C9451000C94510018
S11300200C9451000C9451000C9451000C94510008
S11300300C9451000C9451000C9451000C945100F8
S11300400C9451000C9451000C9451000C945100E8
S11300500C9451000C9451000C9451000C945100D8
S11300600C9451000C94510011241FBECFEFD8E022
S1130070DEBFCDBF11E0A0E0B1E0E2EEF1E002C0EE
S113008005900D92A430B107D9F721E0A4E0B1E0C6
S113009001C01D92A630B207E1F70E9498000C94AB
S11300A0EF000C9400008FEF8AB91BB814B885B91F
S11300B0089518991DC08FE39CE90197F1F700C0DA
S11300C00000189915C0489B07C09091000181E079
S11300D08927809300010CC0499B0AC081E090E00D
S11300E09093020180930101109205011092040182
S11300F019991DC08FE39CE90197F1F700C0000036
S1130100199915C0499B07C09091000181E0892786
S1130110809300010895489B0AC010920201109236
S1130120010181E090E0909305018093040108951A
S11301300E9453000F2EF1E0EF2EF1E0FF2EF02D80
S1130140812C912C5401839404E011E0C1E0D0E0AF
S11301500E945900809100018823E1F09BB1B50110
S1130160A401F701008004C0440F551F661F771FC8
S11301700A94D2F74095842F89238BB92BB1CE01F1
S1130180F801008002C0880F991F0A94E2F78227C1
S11301908BB91BC09BB1B501A401F701008004C059
S11301A0440F551F661F771F0A94D2F74095842F7A
S11301B089238BB92BB1CE01F801008002C0880FCE
S11301C0991F0A94E2F7822B8BB9FFEF23EC89E0A5
S11301D0F15020408040E1F700C00000B9CFF8940E
S10501E0FFCF4B
S10701E20101000013
S9030000FC
