S0110000496E746572727570742E7372656346
S11300000C9434000C9463000C9484000C94510000
S11300100C9451000C9451000C9451000C94510018
S11300200C9451000C9451000C9451000C94510008
S11300300C9451000C9451000C9451000C945100F8
S11300400C9451000C9451000C9451000C945100E8
S11300500C9451000C9451000C9451000C945100D8
S11300600C9451000C94510011241FBECFEFD8E022
S1130070DEBFCDBF11E0A0E0B1E0EAEAF1E002C0EA
S113008005900D92A230B107D9F721E0A2E0B1E0CA
S113009001C01D92A430B207E1F70E94A7000C949E
S11300A0D3000C9400008FEF84B915B81AB88BB143
S11300B08C608BB9E9E6F0E080818A60808383E01C
S11300C08DBB789408951F920F920FB60F9211244E
S11300D08F939F938091020190910301892B39F4AE
S11300E09091000181E089278093000102C081E0A2
S11300F085B910920301109202019F918F910F9084
S11301000FBE0F901F9018951F920F920FB60F926B
S113011011248F939F938091020190910301019781
S113012039F49091000181E089278093000102C095
S113013082E085B981E090E090930301809302010D
S11301409F918F910F900FBE0F901F9018950E9452
S1130150530021E030E080910001882379F0809100
S113016002019091030145B1B90102C0660F771FE6
S11301708A95E2F7CB01842785B90BC080910201EF
S113018090910301A90102C0440F551F8A95E2F71B
S113019045B95FEF63EC79E0515060407040E1F79E
S10D01A000C00000D8CFF894FFCF90
S10501AA01004E
S9030000FC
